{
  "_format": "hh-sol-artifact-1",
  "contractName": "NFTMinter",
  "sourceName": "contracts/NFTMinter.sol",
  "abi": [
    {
      "inputs": [
        {
          "internalType": "string",
          "name": "name",
          "type": "string"
        },
        {
          "internalType": "string",
          "name": "symbol",
          "type": "string"
        }
      ],
      "stateMutability": "nonpayable",
      "type": "constructor"
    },
    {
      "anonymous": false,
      "inputs": [
        {
          "indexed": true,
          "internalType": "address",
          "name": "owner",
          "type": "address"
        },
        {
          "indexed": true,
          "internalType": "address",
          "name": "approved",
          "type": "address"
        },
        {
          "indexed": true,
          "internalType": "uint256",
          "name": "tokenId",
          "type": "uint256"
        }
      ],
      "name": "Approval",
      "type": "event"
    },
    {
      "anonymous": false,
      "inputs": [
        {
          "indexed": true,
          "internalType": "address",
          "name": "owner",
          "type": "address"
        },
        {
          "indexed": true,
          "internalType": "address",
          "name": "operator",
          "type": "address"
        },
        {
          "indexed": false,
          "internalType": "bool",
          "name": "approved",
          "type": "bool"
        }
      ],
      "name": "ApprovalForAll",
      "type": "event"
    },
    {
      "anonymous": false,
      "inputs": [
        {
          "indexed": true,
          "internalType": "address",
          "name": "previousOwner",
          "type": "address"
        },
        {
          "indexed": true,
          "internalType": "address",
          "name": "newOwner",
          "type": "address"
        }
      ],
      "name": "OwnershipTransferred",
      "type": "event"
    },
    {
      "anonymous": false,
      "inputs": [
        {
          "indexed": true,
          "internalType": "address",
          "name": "from",
          "type": "address"
        },
        {
          "indexed": true,
          "internalType": "address",
          "name": "to",
          "type": "address"
        },
        {
          "indexed": true,
          "internalType": "uint256",
          "name": "tokenId",
          "type": "uint256"
        }
      ],
      "name": "Transfer",
      "type": "event"
    },
    {
      "inputs": [
        {
          "internalType": "address",
          "name": "to",
          "type": "address"
        },
        {
          "internalType": "uint256",
          "name": "tokenId",
          "type": "uint256"
        }
      ],
      "name": "approve",
      "outputs": [],
      "stateMutability": "nonpayable",
      "type": "function"
    },
    {
      "inputs": [
        {
          "internalType": "address",
          "name": "owner",
          "type": "address"
        }
      ],
      "name": "balanceOf",
      "outputs": [
        {
          "internalType": "uint256",
          "name": "",
          "type": "uint256"
        }
      ],
      "stateMutability": "view",
      "type": "function"
    },
    {
      "inputs": [
        {
          "internalType": "uint256",
          "name": "tokenId",
          "type": "uint256"
        }
      ],
      "name": "getApproved",
      "outputs": [
        {
          "internalType": "address",
          "name": "",
          "type": "address"
        }
      ],
      "stateMutability": "view",
      "type": "function"
    },
    {
      "inputs": [
        {
          "internalType": "address",
          "name": "owner",
          "type": "address"
        },
        {
          "internalType": "address",
          "name": "operator",
          "type": "address"
        }
      ],
      "name": "isApprovedForAll",
      "outputs": [
        {
          "internalType": "bool",
          "name": "",
          "type": "bool"
        }
      ],
      "stateMutability": "view",
      "type": "function"
    },
    {
      "inputs": [],
      "name": "maxSupply",
      "outputs": [
        {
          "internalType": "uint256",
          "name": "",
          "type": "uint256"
        }
      ],
      "stateMutability": "view",
      "type": "function"
    },
    {
      "inputs": [
        {
          "internalType": "address",
          "name": "recipient",
          "type": "address"
        }
      ],
      "name": "mintNFT",
      "outputs": [],
      "stateMutability": "nonpayable",
      "type": "function"
    },
    {
      "inputs": [],
      "name": "mintedSupply",
      "outputs": [
        {
          "internalType": "uint256",
          "name": "",
          "type": "uint256"
        }
      ],
      "stateMutability": "view",
      "type": "function"
    },
    {
      "inputs": [],
      "name": "name",
      "outputs": [
        {
          "internalType": "string",
          "name": "",
          "type": "string"
        }
      ],
      "stateMutability": "view",
      "type": "function"
    },
    {
      "inputs": [],
      "name": "owner",
      "outputs": [
        {
          "internalType": "address",
          "name": "",
          "type": "address"
        }
      ],
      "stateMutability": "view",
      "type": "function"
    },
    {
      "inputs": [
        {
          "internalType": "uint256",
          "name": "tokenId",
          "type": "uint256"
        }
      ],
      "name": "ownerOf",
      "outputs": [
        {
          "internalType": "address",
          "name": "",
          "type": "address"
        }
      ],
      "stateMutability": "view",
      "type": "function"
    },
    {
      "inputs": [],
      "name": "renounceOwnership",
      "outputs": [],
      "stateMutability": "nonpayable",
      "type": "function"
    },
    {
      "inputs": [
        {
          "internalType": "address",
          "name": "from",
          "type": "address"
        },
        {
          "internalType": "address",
          "name": "to",
          "type": "address"
        },
        {
          "internalType": "uint256",
          "name": "tokenId",
          "type": "uint256"
        }
      ],
      "name": "safeTransferFrom",
      "outputs": [],
      "stateMutability": "nonpayable",
      "type": "function"
    },
    {
      "inputs": [
        {
          "internalType": "address",
          "name": "from",
          "type": "address"
        },
        {
          "internalType": "address",
          "name": "to",
          "type": "address"
        },
        {
          "internalType": "uint256",
          "name": "tokenId",
          "type": "uint256"
        },
        {
          "internalType": "bytes",
          "name": "data",
          "type": "bytes"
        }
      ],
      "name": "safeTransferFrom",
      "outputs": [],
      "stateMutability": "nonpayable",
      "type": "function"
    },
    {
      "inputs": [
        {
          "internalType": "address",
          "name": "operator",
          "type": "address"
        },
        {
          "internalType": "bool",
          "name": "approved",
          "type": "bool"
        }
      ],
      "name": "setApprovalForAll",
      "outputs": [],
      "stateMutability": "nonpayable",
      "type": "function"
    },
    {
      "inputs": [
        {
          "internalType": "uint256",
          "name": "_newMaxSupply",
          "type": "uint256"
        }
      ],
      "name": "setMaxSupply",
      "outputs": [],
      "stateMutability": "nonpayable",
      "type": "function"
    },
    {
      "inputs": [
        {
          "internalType": "bytes4",
          "name": "interfaceId",
          "type": "bytes4"
        }
      ],
      "name": "supportsInterface",
      "outputs": [
        {
          "internalType": "bool",
          "name": "",
          "type": "bool"
        }
      ],
      "stateMutability": "view",
      "type": "function"
    },
    {
      "inputs": [],
      "name": "symbol",
      "outputs": [
        {
          "internalType": "string",
          "name": "",
          "type": "string"
        }
      ],
      "stateMutability": "view",
      "type": "function"
    },
    {
      "inputs": [
        {
          "internalType": "uint256",
          "name": "index",
          "type": "uint256"
        }
      ],
      "name": "tokenByIndex",
      "outputs": [
        {
          "internalType": "uint256",
          "name": "",
          "type": "uint256"
        }
      ],
      "stateMutability": "view",
      "type": "function"
    },
    {
      "inputs": [
        {
          "internalType": "address",
          "name": "owner",
          "type": "address"
        },
        {
          "internalType": "uint256",
          "name": "index",
          "type": "uint256"
        }
      ],
      "name": "tokenOfOwnerByIndex",
      "outputs": [
        {
          "internalType": "uint256",
          "name": "",
          "type": "uint256"
        }
      ],
      "stateMutability": "view",
      "type": "function"
    },
    {
      "inputs": [
        {
          "internalType": "uint256",
          "name": "tokenId",
          "type": "uint256"
        }
      ],
      "name": "tokenURI",
      "outputs": [
        {
          "internalType": "string",
          "name": "",
          "type": "string"
        }
      ],
      "stateMutability": "view",
      "type": "function"
    },
    {
      "inputs": [],
      "name": "totalSupply",
      "outputs": [
        {
          "internalType": "uint256",
          "name": "",
          "type": "uint256"
        }
      ],
      "stateMutability": "view",
      "type": "function"
    },
    {
      "inputs": [
        {
          "internalType": "address",
          "name": "from",
          "type": "address"
        },
        {
          "internalType": "address",
          "name": "to",
          "type": "address"
        },
        {
          "internalType": "uint256",
          "name": "tokenId",
          "type": "uint256"
        }
      ],
      "name": "transferFrom",
      "outputs": [],
      "stateMutability": "nonpayable",
      "type": "function"
    },
    {
      "inputs": [
        {
          "internalType": "address",
          "name": "newOwner",
          "type": "address"
        }
      ],
      "name": "transferOwnership",
      "outputs": [],
      "stateMutability": "nonpayable",
      "type": "function"
    }
  ],
  "bytecode": "0x60806040523480156200001157600080fd5b50604051620039453803806200394583398181016040528101906200003791906200028d565b81818160009080519060200190620000519291906200016b565b5080600190805190602001906200006a9291906200016b565b5050506200008d620000816200009d60201b60201c565b620000a560201b60201c565b6064600c81905550505062000470565b600033905090565b6000600a60009054906101000a900473ffffffffffffffffffffffffffffffffffffffff16905081600a60006101000a81548173ffffffffffffffffffffffffffffffffffffffff021916908373ffffffffffffffffffffffffffffffffffffffff1602179055508173ffffffffffffffffffffffffffffffffffffffff168173ffffffffffffffffffffffffffffffffffffffff167f8be0079c531659141344cd1fd0a4f28419497f9722a3daafe3b4186f6b6457e060405160405180910390a35050565b828054620001799062000395565b90600052602060002090601f0160209004810192826200019d5760008555620001e9565b82601f10620001b857805160ff1916838001178555620001e9565b82800160010185558215620001e9579182015b82811115620001e8578251825591602001919060010190620001cb565b5b509050620001f89190620001fc565b5090565b5b8082111562000217576000816000905550600101620001fd565b5090565b6000620002326200022c8462000329565b62000300565b9050828152602081018484840111156200024b57600080fd5b620002588482856200035f565b509392505050565b600082601f8301126200027257600080fd5b8151620002848482602086016200021b565b91505092915050565b60008060408385031215620002a157600080fd5b600083015167ffffffffffffffff811115620002bc57600080fd5b620002ca8582860162000260565b925050602083015167ffffffffffffffff811115620002e857600080fd5b620002f68582860162000260565b9150509250929050565b60006200030c6200031f565b90506200031a8282620003cb565b919050565b6000604051905090565b600067ffffffffffffffff82111562000347576200034662000430565b5b62000352826200045f565b9050602081019050919050565b60005b838110156200037f57808201518184015260208101905062000362565b838111156200038f576000848401525b50505050565b60006002820490506001821680620003ae57607f821691505b60208210811415620003c557620003c462000401565b5b50919050565b620003d6826200045f565b810181811067ffffffffffffffff82111715620003f857620003f762000430565b5b80604052505050565b7f4e487b7100000000000000000000000000000000000000000000000000000000600052602260045260246000fd5b7f4e487b7100000000000000000000000000000000000000000000000000000000600052604160045260246000fd5b6000601f19601f8301169050919050565b6134c580620004806000396000f3fe608060405234801561001057600080fd5b506004361061014d5760003560e01c80636f8b44b0116100c3578063b88d4fde1161007c578063b88d4fde1461039c578063c1bd8cf9146103b8578063c87b56dd146103d6578063d5abeb0114610406578063e985e9c514610424578063f2fde38b146104545761014d565b80636f8b44b0146102ee57806370a082311461030a578063715018a61461033a5780638da5cb5b1461034457806395d89b4114610362578063a22cb465146103805761014d565b806323b872dd1161011557806323b872dd1461020a5780632f745c591461022657806342842e0e146102565780634f6ccce71461027257806354ba0f27146102a25780636352211e146102be5761014d565b806301ffc9a71461015257806306fdde0314610182578063081812fc146101a0578063095ea7b3146101d057806318160ddd146101ec575b600080fd5b61016c600480360381019061016791906125d8565b610470565b6040516101799190612a24565b60405180910390f35b61018a6104ea565b6040516101979190612a3f565b60405180910390f35b6101ba60048036038101906101b5919061262a565b61057c565b6040516101c791906129bd565b60405180910390f35b6101ea60048036038101906101e5919061259c565b6105c2565b005b6101f46106da565b6040516102019190612ca1565b60405180910390f35b610224600480360381019061021f9190612496565b6106e7565b005b610240600480360381019061023b919061259c565b610747565b60405161024d9190612ca1565b60405180910390f35b610270600480360381019061026b9190612496565b6107ec565b005b61028c6004803603810190610287919061262a565b61080c565b6040516102999190612ca1565b60405180910390f35b6102bc60048036038101906102b79190612431565b6108a3565b005b6102d860048036038101906102d3919061262a565b610930565b6040516102e591906129bd565b60405180910390f35b6103086004803603810190610303919061262a565b6109b7565b005b610324600480360381019061031f9190612431565b610a0e565b6040516103319190612ca1565b60405180910390f35b610342610ac6565b005b61034c610ada565b60405161035991906129bd565b60405180910390f35b61036a610b04565b6040516103779190612a3f565b60405180910390f35b61039a60048036038101906103959190612560565b610b96565b005b6103b660048036038101906103b191906124e5565b610bac565b005b6103c0610c0e565b6040516103cd9190612ca1565b60405180910390f35b6103f060048036038101906103eb919061262a565b610c14565b6040516103fd9190612a3f565b60405180910390f35b61040e610c7c565b60405161041b9190612ca1565b60405180910390f35b61043e6004803603810190610439919061245a565b610c82565b60405161044b9190612a24565b60405180910390f35b61046e60048036038101906104699190612431565b610d16565b005b60007f780e9d63000000000000000000000000000000000000000000000000000000007bffffffffffffffffffffffffffffffffffffffffffffffffffffffff1916827bffffffffffffffffffffffffffffffffffffffffffffffffffffffff191614806104e357506104e282610d9a565b5b9050919050565b6060600080546104f990612e3f565b80601f016020809104026020016040519081016040528092919081815260200182805461052590612e3f565b80156105725780601f1061054757610100808354040283529160200191610572565b820191906000526020600020905b81548152906001019060200180831161055557829003601f168201915b5050505050905090565b600061058782610e7c565b6004600083815260200190815260200160002060009054906101000a900473ffffffffffffffffffffffffffffffffffffffff169050919050565b60006105cd82610930565b90508073ffffffffffffffffffffffffffffffffffffffff168373ffffffffffffffffffffffffffffffffffffffff16141561063e576040517f08c379a000000000000000000000000000000000000000000000000000000000815260040161063590612c01565b60405180910390fd5b8073ffffffffffffffffffffffffffffffffffffffff1661065d610ec7565b73ffffffffffffffffffffffffffffffffffffffff16148061068c575061068b81610686610ec7565b610c82565b5b6106cb576040517f08c379a00000000000000000000000000000000000000000000000000000000081526004016106c290612c21565b60405180910390fd5b6106d58383610ecf565b505050565b6000600880549050905090565b6106f86106f2610ec7565b82610f88565b610737576040517f08c379a000000000000000000000000000000000000000000000000000000000815260040161072e90612a61565b60405180910390fd5b61074283838361101d565b505050565b600061075283610a0e565b8210610793576040517f08c379a000000000000000000000000000000000000000000000000000000000815260040161078a90612a81565b60405180910390fd5b600660008473ffffffffffffffffffffffffffffffffffffffff1673ffffffffffffffffffffffffffffffffffffffff168152602001908152602001600020600083815260200190815260200160002054905092915050565b61080783838360405180602001604052806000815250610bac565b505050565b60006108166106da565b8210610857576040517f08c379a000000000000000000000000000000000000000000000000000000000815260040161084e90612c61565b60405180910390fd5b60088281548110610891577f4e487b7100000000000000000000000000000000000000000000000000000000600052603260045260246000fd5b90600052602060002001549050919050565b6108ab611317565b600c54600d54106108f1576040517f08c379a00000000000000000000000000000000000000000000000000000000081526004016108e890612c41565b60405180910390fd5b600b600081548092919061090490612ea2565b919050555061091581600b54611395565b600d600081548092919061092890612ea2565b919050555050565b60008061093c836115b3565b9050600073ffffffffffffffffffffffffffffffffffffffff168173ffffffffffffffffffffffffffffffffffffffff1614156109ae576040517f08c379a00000000000000000000000000000000000000000000000000000000081526004016109a590612be1565b60405180910390fd5b80915050919050565b6109bf611317565b600d54811015610a04576040517f08c379a00000000000000000000000000000000000000000000000000000000081526004016109fb90612b81565b60405180910390fd5b80600c8190555050565b60008073ffffffffffffffffffffffffffffffffffffffff168273ffffffffffffffffffffffffffffffffffffffff161415610a7f576040517f08c379a0000000000000000000000000000000000000000000000000000000008152600401610a7690612b61565b60405180910390fd5b600360008373ffffffffffffffffffffffffffffffffffffffff1673ffffffffffffffffffffffffffffffffffffffff168152602001908152602001600020549050919050565b610ace611317565b610ad860006115f0565b565b6000600a60009054906101000a900473ffffffffffffffffffffffffffffffffffffffff16905090565b606060018054610b1390612e3f565b80601f0160208091040260200160405190810160405280929190818152602001828054610b3f90612e3f565b8015610b8c5780601f10610b6157610100808354040283529160200191610b8c565b820191906000526020600020905b815481529060010190602001808311610b6f57829003601f168201915b5050505050905090565b610ba8610ba1610ec7565b83836116b6565b5050565b610bbd610bb7610ec7565b83610f88565b610bfc576040517f08c379a0000000000000000000000000000000000000000000000000000000008152600401610bf390612a61565b60405180910390fd5b610c0884848484611823565b50505050565b600d5481565b6060610c1f82610e7c565b6000610c2961187f565b90506000815111610c495760405180602001604052806000815250610c74565b80610c53846118bc565b604051602001610c64929190612999565b6040516020818303038152906040525b915050919050565b600c5481565b6000600560008473ffffffffffffffffffffffffffffffffffffffff1673ffffffffffffffffffffffffffffffffffffffff16815260200190815260200160002060008373ffffffffffffffffffffffffffffffffffffffff1673ffffffffffffffffffffffffffffffffffffffff16815260200190815260200160002060009054906101000a900460ff16905092915050565b610d1e611317565b600073ffffffffffffffffffffffffffffffffffffffff168173ffffffffffffffffffffffffffffffffffffffff161415610d8e576040517f08c379a0000000000000000000000000000000000000000000000000000000008152600401610d8590612ac1565b60405180910390fd5b610d97816115f0565b50565b60007f80ac58cd000000000000000000000000000000000000000000000000000000007bffffffffffffffffffffffffffffffffffffffffffffffffffffffff1916827bffffffffffffffffffffffffffffffffffffffffffffffffffffffff19161480610e6557507f5b5e139f000000000000000000000000000000000000000000000000000000007bffffffffffffffffffffffffffffffffffffffffffffffffffffffff1916827bffffffffffffffffffffffffffffffffffffffffffffffffffffffff1916145b80610e755750610e74826119e0565b5b9050919050565b610e8581611a4a565b610ec4576040517f08c379a0000000000000000000000000000000000000000000000000000000008152600401610ebb90612be1565b60405180910390fd5b50565b600033905090565b816004600083815260200190815260200160002060006101000a81548173ffffffffffffffffffffffffffffffffffffffff021916908373ffffffffffffffffffffffffffffffffffffffff160217905550808273ffffffffffffffffffffffffffffffffffffffff16610f4283610930565b73ffffffffffffffffffffffffffffffffffffffff167f8c5be1e5ebec7d5bd14f71427d1e84f3dd0314c0f7b2291e5b200ac8c7c3b92560405160405180910390a45050565b600080610f9483610930565b90508073ffffffffffffffffffffffffffffffffffffffff168473ffffffffffffffffffffffffffffffffffffffff161480610fd65750610fd58185610c82565b5b8061101457508373ffffffffffffffffffffffffffffffffffffffff16610ffc8461057c565b73ffffffffffffffffffffffffffffffffffffffff16145b91505092915050565b8273ffffffffffffffffffffffffffffffffffffffff1661103d82610930565b73ffffffffffffffffffffffffffffffffffffffff1614611093576040517f08c379a000000000000000000000000000000000000000000000000000000000815260040161108a90612ae1565b60405180910390fd5b600073ffffffffffffffffffffffffffffffffffffffff168273ffffffffffffffffffffffffffffffffffffffff161415611103576040517f08c379a00000000000000000000000000000000000000000000000000000000081526004016110fa90612b21565b60405180910390fd5b6111108383836001611a8b565b8273ffffffffffffffffffffffffffffffffffffffff1661113082610930565b73ffffffffffffffffffffffffffffffffffffffff1614611186576040517f08c379a000000000000000000000000000000000000000000000000000000000815260040161117d90612ae1565b60405180910390fd5b6004600082815260200190815260200160002060006101000a81549073ffffffffffffffffffffffffffffffffffffffff02191690556001600360008573ffffffffffffffffffffffffffffffffffffffff1673ffffffffffffffffffffffffffffffffffffffff168152602001908152602001600020600082825403925050819055506001600360008473ffffffffffffffffffffffffffffffffffffffff1673ffffffffffffffffffffffffffffffffffffffff16815260200190815260200160002060008282540192505081905550816002600083815260200190815260200160002060006101000a81548173ffffffffffffffffffffffffffffffffffffffff021916908373ffffffffffffffffffffffffffffffffffffffff160217905550808273ffffffffffffffffffffffffffffffffffffffff168473ffffffffffffffffffffffffffffffffffffffff167fddf252ad1be2c89b69c2b068fc378daa952ba7f163c4a11628f55a4df523b3ef60405160405180910390a46113128383836001611beb565b505050565b61131f610ec7565b73ffffffffffffffffffffffffffffffffffffffff1661133d610ada565b73ffffffffffffffffffffffffffffffffffffffff1614611393576040517f08c379a000000000000000000000000000000000000000000000000000000000815260040161138a90612bc1565b60405180910390fd5b565b600073ffffffffffffffffffffffffffffffffffffffff168273ffffffffffffffffffffffffffffffffffffffff161415611405576040517f08c379a00000000000000000000000000000000000000000000000000000000081526004016113fc90612ba1565b60405180910390fd5b61140e81611a4a565b1561144e576040517f08c379a000000000000000000000000000000000000000000000000000000000815260040161144590612b01565b60405180910390fd5b61145c600083836001611a8b565b61146581611a4a565b156114a5576040517f08c379a000000000000000000000000000000000000000000000000000000000815260040161149c90612b01565b60405180910390fd5b6001600360008473ffffffffffffffffffffffffffffffffffffffff1673ffffffffffffffffffffffffffffffffffffffff16815260200190815260200160002060008282540192505081905550816002600083815260200190815260200160002060006101000a81548173ffffffffffffffffffffffffffffffffffffffff021916908373ffffffffffffffffffffffffffffffffffffffff160217905550808273ffffffffffffffffffffffffffffffffffffffff16600073ffffffffffffffffffffffffffffffffffffffff167fddf252ad1be2c89b69c2b068fc378daa952ba7f163c4a11628f55a4df523b3ef60405160405180910390a46115af600083836001611beb565b5050565b60006002600083815260200190815260200160002060009054906101000a900473ffffffffffffffffffffffffffffffffffffffff169050919050565b6000600a60009054906101000a900473ffffffffffffffffffffffffffffffffffffffff16905081600a60006101000a81548173ffffffffffffffffffffffffffffffffffffffff021916908373ffffffffffffffffffffffffffffffffffffffff1602179055508173ffffffffffffffffffffffffffffffffffffffff168173ffffffffffffffffffffffffffffffffffffffff167f8be0079c531659141344cd1fd0a4f28419497f9722a3daafe3b4186f6b6457e060405160405180910390a35050565b8173ffffffffffffffffffffffffffffffffffffffff168373ffffffffffffffffffffffffffffffffffffffff161415611725576040517f08c379a000000000000000000000000000000000000000000000000000000000815260040161171c90612b41565b60405180910390fd5b80600560008573ffffffffffffffffffffffffffffffffffffffff1673ffffffffffffffffffffffffffffffffffffffff16815260200190815260200160002060008473ffffffffffffffffffffffffffffffffffffffff1673ffffffffffffffffffffffffffffffffffffffff16815260200190815260200160002060006101000a81548160ff0219169083151502179055508173ffffffffffffffffffffffffffffffffffffffff168373ffffffffffffffffffffffffffffffffffffffff167f17307eab39ab6107e8899845ad3d59bd9653f200f220920489ca2b5937696c31836040516118169190612a24565b60405180910390a3505050565b61182e84848461101d565b61183a84848484611bf1565b611879576040517f08c379a000000000000000000000000000000000000000000000000000000000815260040161187090612aa1565b60405180910390fd5b50505050565b60606040518060400160405280601a81526020017f68747470733a2f2f796f75722d6d657461646174612d75726c2f000000000000815250905090565b6060600060016118cb84611d88565b01905060008167ffffffffffffffff811115611910577f4e487b7100000000000000000000000000000000000000000000000000000000600052604160045260246000fd5b6040519080825280601f01601f1916602001820160405280156119425781602001600182028036833780820191505090505b509050600082602001820190505b6001156119d5578080600190039150507f3031323334353637383961626364656600000000000000000000000000000000600a86061a8153600a85816119bf577f4e487b7100000000000000000000000000000000000000000000000000000000600052601260045260246000fd5b04945060008514156119d0576119d5565b611950565b819350505050919050565b60007f01ffc9a7000000000000000000000000000000000000000000000000000000007bffffffffffffffffffffffffffffffffffffffffffffffffffffffff1916827bffffffffffffffffffffffffffffffffffffffffffffffffffffffff1916149050919050565b60008073ffffffffffffffffffffffffffffffffffffffff16611a6c836115b3565b73ffffffffffffffffffffffffffffffffffffffff1614159050919050565b611a9784848484611fbf565b6001811115611adb576040517f08c379a0000000000000000000000000000000000000000000000000000000008152600401611ad290612c81565b60405180910390fd5b6000829050600073ffffffffffffffffffffffffffffffffffffffff168573ffffffffffffffffffffffffffffffffffffffff161415611b2357611b1e81611fc5565b611b62565b8373ffffffffffffffffffffffffffffffffffffffff168573ffffffffffffffffffffffffffffffffffffffff1614611b6157611b60858261200e565b5b5b600073ffffffffffffffffffffffffffffffffffffffff168473ffffffffffffffffffffffffffffffffffffffff161415611ba557611ba08161217b565b611be4565b8473ffffffffffffffffffffffffffffffffffffffff168473ffffffffffffffffffffffffffffffffffffffff1614611be357611be284826122be565b5b5b5050505050565b50505050565b6000611c128473ffffffffffffffffffffffffffffffffffffffff1661233d565b15611d7b578373ffffffffffffffffffffffffffffffffffffffff1663150b7a02611c3b610ec7565b8786866040518563ffffffff1660e01b8152600401611c5d94939291906129d8565b602060405180830381600087803b158015611c7757600080fd5b505af1925050508015611ca857506040513d601f19601f82011682018060405250810190611ca59190612601565b60015b611d2b573d8060008114611cd8576040519150601f19603f3d011682016040523d82523d6000602084013e611cdd565b606091505b50600081511415611d23576040517f08c379a0000000000000000000000000000000000000000000000000000000008152600401611d1a90612aa1565b60405180910390fd5b805181602001fd5b63150b7a0260e01b7bffffffffffffffffffffffffffffffffffffffffffffffffffffffff1916817bffffffffffffffffffffffffffffffffffffffffffffffffffffffff191614915050611d80565b600190505b949350505050565b600080600090507a184f03e93ff9f4daa797ed6e38ed64bf6a1f0100000000000000008310611e0c577a184f03e93ff9f4daa797ed6e38ed64bf6a1f0100000000000000008381611e02577f4e487b7100000000000000000000000000000000000000000000000000000000600052601260045260246000fd5b0492506040810190505b6d04ee2d6d415b85acef81000000008310611e6f576d04ee2d6d415b85acef81000000008381611e65577f4e487b7100000000000000000000000000000000000000000000000000000000600052601260045260246000fd5b0492506020810190505b662386f26fc100008310611ec457662386f26fc100008381611eba577f4e487b7100000000000000000000000000000000000000000000000000000000600052601260045260246000fd5b0492506010810190505b6305f5e1008310611f13576305f5e1008381611f09577f4e487b7100000000000000000000000000000000000000000000000000000000600052601260045260246000fd5b0492506008810190505b6127108310611f5e576127108381611f54577f4e487b7100000000000000000000000000000000000000000000000000000000600052601260045260246000fd5b0492506004810190505b60648310611fa75760648381611f9d577f4e487b7100000000000000000000000000000000000000000000000000000000600052601260045260246000fd5b0492506002810190505b600a8310611fb6576001810190505b80915050919050565b50505050565b6008805490506009600083815260200190815260200160002081905550600881908060018154018082558091505060019003906000526020600020016000909190919091505550565b6000600161201b84610a0e565b6120259190612d55565b905060006007600084815260200190815260200160002054905081811461210a576000600660008673ffffffffffffffffffffffffffffffffffffffff1673ffffffffffffffffffffffffffffffffffffffff168152602001908152602001600020600084815260200190815260200160002054905080600660008773ffffffffffffffffffffffffffffffffffffffff1673ffffffffffffffffffffffffffffffffffffffff168152602001908152602001600020600084815260200190815260200160002081905550816007600083815260200190815260200160002081905550505b6007600084815260200190815260200160002060009055600660008573ffffffffffffffffffffffffffffffffffffffff1673ffffffffffffffffffffffffffffffffffffffff16815260200190815260200160002060008381526020019081526020016000206000905550505050565b6000600160088054905061218f9190612d55565b90506000600960008481526020019081526020016000205490506000600883815481106121e5577f4e487b7100000000000000000000000000000000000000000000000000000000600052603260045260246000fd5b90600052602060002001549050806008838154811061222d577f4e487b7100000000000000000000000000000000000000000000000000000000600052603260045260246000fd5b9060005260206000200181905550816009600083815260200190815260200160002081905550600960008581526020019081526020016000206000905560088054806122a2577f4e487b7100000000000000000000000000000000000000000000000000000000600052603160045260246000fd5b6001900381819060005260206000200160009055905550505050565b60006122c983610a0e565b905081600660008573ffffffffffffffffffffffffffffffffffffffff1673ffffffffffffffffffffffffffffffffffffffff168152602001908152602001600020600083815260200190815260200160002081905550806007600084815260200190815260200160002081905550505050565b6000808273ffffffffffffffffffffffffffffffffffffffff163b119050919050565b600061237361236e84612ce1565b612cbc565b90508281526020810184848401111561238b57600080fd5b612396848285612dfd565b509392505050565b6000813590506123ad81613433565b92915050565b6000813590506123c28161344a565b92915050565b6000813590506123d781613461565b92915050565b6000815190506123ec81613461565b92915050565b600082601f83011261240357600080fd5b8135612413848260208601612360565b91505092915050565b60008135905061242b81613478565b92915050565b60006020828403121561244357600080fd5b60006124518482850161239e565b91505092915050565b6000806040838503121561246d57600080fd5b600061247b8582860161239e565b925050602061248c8582860161239e565b9150509250929050565b6000806000606084860312156124ab57600080fd5b60006124b98682870161239e565b93505060206124ca8682870161239e565b92505060406124db8682870161241c565b9150509250925092565b600080600080608085870312156124fb57600080fd5b60006125098782880161239e565b945050602061251a8782880161239e565b935050604061252b8782880161241c565b925050606085013567ffffffffffffffff81111561254857600080fd5b612554878288016123f2565b91505092959194509250565b6000806040838503121561257357600080fd5b60006125818582860161239e565b9250506020612592858286016123b3565b9150509250929050565b600080604083850312156125af57600080fd5b60006125bd8582860161239e565b92505060206125ce8582860161241c565b9150509250929050565b6000602082840312156125ea57600080fd5b60006125f8848285016123c8565b91505092915050565b60006020828403121561261357600080fd5b6000612621848285016123dd565b91505092915050565b60006020828403121561263c57600080fd5b600061264a8482850161241c565b91505092915050565b61265c81612d89565b82525050565b61266b81612d9b565b82525050565b600061267c82612d12565b6126868185612d28565b9350612696818560208601612e0c565b61269f81612f78565b840191505092915050565b60006126b582612d1d565b6126bf8185612d39565b93506126cf818560208601612e0c565b6126d881612f78565b840191505092915050565b60006126ee82612d1d565b6126f88185612d4a565b9350612708818560208601612e0c565b80840191505092915050565b6000612721602d83612d39565b915061272c82612f89565b604082019050919050565b6000612744602b83612d39565b915061274f82612fd8565b604082019050919050565b6000612767603283612d39565b915061277282613027565b604082019050919050565b600061278a602683612d39565b915061279582613076565b604082019050919050565b60006127ad602583612d39565b91506127b8826130c5565b604082019050919050565b60006127d0601c83612d39565b91506127db82613114565b602082019050919050565b60006127f3602483612d39565b91506127fe8261313d565b604082019050919050565b6000612816601983612d39565b91506128218261318c565b602082019050919050565b6000612839602983612d39565b9150612844826131b5565b604082019050919050565b600061285c603d83612d39565b915061286782613204565b604082019050919050565b600061287f602083612d39565b915061288a82613253565b602082019050919050565b60006128a2602083612d39565b91506128ad8261327c565b602082019050919050565b60006128c5601883612d39565b91506128d0826132a5565b602082019050919050565b60006128e8602183612d39565b91506128f3826132ce565b604082019050919050565b600061290b603d83612d39565b91506129168261331d565b604082019050919050565b600061292e601283612d39565b91506129398261336c565b602082019050919050565b6000612951602c83612d39565b915061295c82613395565b604082019050919050565b6000612974603583612d39565b915061297f826133e4565b604082019050919050565b61299381612df3565b82525050565b60006129a582856126e3565b91506129b182846126e3565b91508190509392505050565b60006020820190506129d26000830184612653565b92915050565b60006080820190506129ed6000830187612653565b6129fa6020830186612653565b612a07604083018561298a565b8181036060830152612a198184612671565b905095945050505050565b6000602082019050612a396000830184612662565b92915050565b60006020820190508181036000830152612a5981846126aa565b905092915050565b60006020820190508181036000830152612a7a81612714565b9050919050565b60006020820190508181036000830152612a9a81612737565b9050919050565b60006020820190508181036000830152612aba8161275a565b9050919050565b60006020820190508181036000830152612ada8161277d565b9050919050565b60006020820190508181036000830152612afa816127a0565b9050919050565b60006020820190508181036000830152612b1a816127c3565b9050919050565b60006020820190508181036000830152612b3a816127e6565b9050919050565b60006020820190508181036000830152612b5a81612809565b9050919050565b60006020820190508181036000830152612b7a8161282c565b9050919050565b60006020820190508181036000830152612b9a8161284f565b9050919050565b60006020820190508181036000830152612bba81612872565b9050919050565b60006020820190508181036000830152612bda81612895565b9050919050565b60006020820190508181036000830152612bfa816128b8565b9050919050565b60006020820190508181036000830152612c1a816128db565b9050919050565b60006020820190508181036000830152612c3a816128fe565b9050919050565b60006020820190508181036000830152612c5a81612921565b9050919050565b60006020820190508181036000830152612c7a81612944565b9050919050565b60006020820190508181036000830152612c9a81612967565b9050919050565b6000602082019050612cb6600083018461298a565b92915050565b6000612cc6612cd7565b9050612cd28282612e71565b919050565b6000604051905090565b600067ffffffffffffffff821115612cfc57612cfb612f49565b5b612d0582612f78565b9050602081019050919050565b600081519050919050565b600081519050919050565b600082825260208201905092915050565b600082825260208201905092915050565b600081905092915050565b6000612d6082612df3565b9150612d6b83612df3565b925082821015612d7e57612d7d612eeb565b5b828203905092915050565b6000612d9482612dd3565b9050919050565b60008115159050919050565b60007fffffffff0000000000000000000000000000000000000000000000000000000082169050919050565b600073ffffffffffffffffffffffffffffffffffffffff82169050919050565b6000819050919050565b82818337600083830152505050565b60005b83811015612e2a578082015181840152602081019050612e0f565b83811115612e39576000848401525b50505050565b60006002820490506001821680612e5757607f821691505b60208210811415612e6b57612e6a612f1a565b5b50919050565b612e7a82612f78565b810181811067ffffffffffffffff82111715612e9957612e98612f49565b5b80604052505050565b6000612ead82612df3565b91507fffffffffffffffffffffffffffffffffffffffffffffffffffffffffffffffff821415612ee057612edf612eeb565b5b600182019050919050565b7f4e487b7100000000000000000000000000000000000000000000000000000000600052601160045260246000fd5b7f4e487b7100000000000000000000000000000000000000000000000000000000600052602260045260246000fd5b7f4e487b7100000000000000000000000000000000000000000000000000000000600052604160045260246000fd5b6000601f19601f8301169050919050565b7f4552433732313a2063616c6c6572206973206e6f7420746f6b656e206f776e6560008201527f72206f7220617070726f76656400000000000000000000000000000000000000602082015250565b7f455243373231456e756d657261626c653a206f776e657220696e646578206f7560008201527f74206f6620626f756e6473000000000000000000000000000000000000000000602082015250565b7f4552433732313a207472616e7366657220746f206e6f6e20455243373231526560008201527f63656976657220696d706c656d656e7465720000000000000000000000000000602082015250565b7f4f776e61626c653a206e6577206f776e657220697320746865207a65726f206160008201527f6464726573730000000000000000000000000000000000000000000000000000602082015250565b7f4552433732313a207472616e736665722066726f6d20696e636f72726563742060008201527f6f776e6572000000000000000000000000000000000000000000000000000000602082015250565b7f4552433732313a20746f6b656e20616c7265616479206d696e74656400000000600082015250565b7f4552433732313a207472616e7366657220746f20746865207a65726f2061646460008201527f7265737300000000000000000000000000000000000000000000000000000000602082015250565b7f4552433732313a20617070726f766520746f2063616c6c657200000000000000600082015250565b7f4552433732313a2061646472657373207a65726f206973206e6f74206120766160008201527f6c6964206f776e65720000000000000000000000000000000000000000000000602082015250565b7f4e6577206d617820737570706c79206d7573742062652067726561746572207460008201527f68616e206f7220657175616c20746f206d696e74656420737570706c79000000602082015250565b7f4552433732313a206d696e7420746f20746865207a65726f2061646472657373600082015250565b7f4f776e61626c653a2063616c6c6572206973206e6f7420746865206f776e6572600082015250565b7f4552433732313a20696e76616c696420746f6b656e2049440000000000000000600082015250565b7f4552433732313a20617070726f76616c20746f2063757272656e74206f776e6560008201527f7200000000000000000000000000000000000000000000000000000000000000602082015250565b7f4552433732313a20617070726f76652063616c6c6572206973206e6f7420746f60008201527f6b656e206f776e6572206f7220617070726f76656420666f7220616c6c000000602082015250565b7f4d617820737570706c7920726561636865640000000000000000000000000000600082015250565b7f455243373231456e756d657261626c653a20676c6f62616c20696e646578206f60008201527f7574206f6620626f756e64730000000000000000000000000000000000000000602082015250565b7f455243373231456e756d657261626c653a20636f6e736563757469766520747260008201527f616e7366657273206e6f7420737570706f727465640000000000000000000000602082015250565b61343c81612d89565b811461344757600080fd5b50565b61345381612d9b565b811461345e57600080fd5b50565b61346a81612da7565b811461347557600080fd5b50565b61348181612df3565b811461348c57600080fd5b5056fea2646970667358221220a31fb8931fbadaac785bf2b933eb08d3d738030413cab7d5179ff476e673c3cf64736f6c63430008010033",
  "linkReferences": {},
  "deployedLinkReferences": {}
}